:100000000C9463000C948B000C948B000C948B006C
:100010000C948B000C948B000C948B000C94B40308
:100020000C948B000C948B000C948B000C948B0024
:100030000C948B000C948B000C948B000C948B0014
:100040000C948E040C948B000C945C040C94360479
:100050000C948B000C948B000C948B000C948B00F4
:100060000C948B000C948B000000000024002700EF
:100070002A000000000023002600290000000008DC
:10008000000201000003040700000000000000005F
:10009000010204081020408001020408102001021F
:1000A0000408102000000000250028002B00040494
:1000B0000404040404040202020202020303030310
:1000C00003030200C00611241FBECFEFD8E0DEBF3D
:1000D000CDBF11E0A0E0B1E0E0EAFEE002C0059093
:1000E0000D92A431B107D9F721E0A4E1B1E001C03C
:1000F0001D92AB3CB207E1F710E0C3E6D0E004C0CC
:100100002197FE010E943907C236D107C9F70E9424
:10011000D8040C944E070C940000AF92BF92CF927B
:10012000DF92EF92FF920F931F93CF93DF936C01B7
:100130007B018B01040F151FEB015E01AE18BF0898
:10014000C017D10759F06991D601ED91FC9101904A
:10015000F081E02DC6010995892B79F7C501DF9162
:10016000CF911F910F91FF90EF90DF90CF90BF90B4
:10017000AF900895FC01538D448D252F30E0842FDE
:1001800090E0821B930B541710F0CF9608950197BF
:100190000895FC01918D828D981761F0A28DAE0FAC
:1001A000BF2FB11D5D968C91928D9F5F9F73928F33
:1001B00090E008958FEF9FEF0895FC01918D828D5F
:1001C000981731F0828DE80FF11D858D90E008952C
:1001D0008FEF9FEF0895FC01918D228D892F90E084
:1001E000805C9F4F821B91098F73992708958DE141
:1001F00091E00E94EB0021E0892B09F420E0822F9E
:10020000089580E090E0892B29F00E94F700811189
:100210000C9400000895FC01A48DA80FB92FB11D06
:10022000A35ABF4F2C91848D90E001968F7399272C
:10023000848FA689B7892C93A089B1898C9183700A
:1002400080648C93938D848D981306C00288F38903
:10025000E02D80818F7D80830895EF92FF920F9330
:100260001F93CF93DF93EC0181E0888F9B8D8C8D62
:1002700098131AC0E889F989808185FF15C09FB756
:10028000F894EE89FF896083E889F9898081837019
:10029000806480839FBF81E090E0DF91CF911F91C8
:1002A0000F91FF90EF900895F62E0B8D10E00F5FE9
:1002B0001F4F0F731127E02E8C8D8E110CC00FB6BF
:1002C00007FCFACFE889F989808185FFF5CFCE0157
:1002D0000E940B01F1CFEB8DEC0FFD2FF11DE35AC6
:1002E000FF4FF0829FB7F8940B8FEA89FB898081DA
:1002F0008062CFCFCF93DF93EC01888D8823B9F054
:10030000AA89BB89E889F9898C9185FD03C0808120
:1003100086FD0DC00FB607FCF7CF8C9185FFF2CF9D
:10032000808185FFEDCFCE010E940B01E9CFDF91E7
:10033000CF910895833081F028F4813099F0823094
:10034000A9F008958730A9F08830C9F08430B1F45D
:10035000809180008F7D03C0809180008F77809393
:100360008000089584B58F7784BD089584B58F7D0E
:10037000FBCF8091B0008F778093B000089580917B
:10038000B0008F7DF9CF1F93CF93DF93282F30E0FC
:10039000F901E458FF4F8491F901E057FF4FD491E0
:1003A000F901E255FF4FC491CC23A9F0162F81111A
:1003B0000E949A01EC2FF0E0EE0FFF1FEC55FF4F6B
:1003C000A591B4918FB7F894EC91111108C0D09514
:1003D000DE23DC938FBFDF91CF911F910895DE2B39
:1003E000F8CFCF93DF9390E0FC01E057FF4F2491CB
:1003F00082559F4FFC0184918823D1F090E0880FB3
:10040000991FFC01E859FF4FA591B491FC01EC55EF
:10041000FF4FC591D49161110EC09FB7F8948C9194
:10042000E22FE0958E238C932881E223E8839FBFFF
:10043000DF91CF9108958FB7F894EC91E22BEC9374
:100440008FBFF6CF4F925F926F927F928F929F9263
:10045000AF92BF92CF92DF92EF92FF920F931F93D2
:10046000CF938C016A017B0180910001883099F063
:100470008F3F09F453C0CF911F910F91FF90EF90E0
:10048000DF90CF90BF90AF909F908F907F906F90B4
:100490005F904F900895E2ECF0E0C491C7FDEBCF80
:1004A00061E088E00E94F1012801712C612CCC23CD
:1004B000F1F0980150E040E0C23009F09EC0280100
:1004C0003A0164E274EF80E090E00E940F07490176
:1004D0005A0181E0881A9108A108B10895E08FEFD0
:1004E00088169104A104B10409F00CF4DFC062E1A4
:1004F0007AE780E090E0A30192010E940F07490192
:100500005A0181E0881A9108A108B10896E0C1114A
:10051000CDC085B5887F846085BD84C088E0809328
:100520000001E2ECF0E0C491CF3F09F4A4CFC13068
:1005300021F150F0C23009F43EC0C7FD9CCF61E00C
:1005400088E00E94F101B5CF14BC15BC84B582606F
:1005500084BD85B5816085BDE6EBF0E0E491F0E017
:10056000EE0FFF1FEC55FF4F85919491E8E9F0E005
:10057000E491E093BE01C0E093CF1092800010920E
:10058000810080918100886080938100809181004A
:10059000816080938100E6EBF0E0E491F0E0EE0F03
:1005A000FF1FEC55FF4F85919491E8E9F0E0E4914D
:1005B000E093BD0175CF1092B0001092B100809110
:1005C000B00082608093B0008091B1008160809320
:1005D000B100E6EBF0E0E491F0E0EE0FFF1FEC5528
:1005E000FF4F859194919093BC018093BB01E8E902
:1005F000F0E0E491E093BA0153CF60E072E18AE762
:1006000090E00E940F0749015A0181E0881A910881
:10061000A108B108C13031F480918100887F8160E8
:1006200080938100D801AA0FBB1FA70196010E94E9
:100630002E0728EE33E040E050E00E94ED06C13086
:1006400099F0C23019F1C11116CF87BC2093C701B0
:100650003093C8014093C9015093CA0180916E0044
:10066000826080936E0007CF90928900809288000C
:100670002093C3013093C4014093C5015093C60138
:1006800080916F00826080936F00F5CE8092B300FE
:100690002093BF013093C0014093C1015093C20128
:1006A00080917000826080937000E5CE8091B100EF
:1006B000887F892B8093B100B5CF3FB7F8948091A4
:1006C000190190911A01A0911B01B0911C0126B54E
:1006D000A89B05C02F3F19F00196A11DB11D3FBF7A
:1006E000BA2FA92F982F8827BC01CD01620F711D49
:1006F000811D911D42E0660F771F881F991F4A9543
:10070000D1F708958F929F92AF92BF92CF92DF92CE
:10071000EF92FF924B015C010E945D036B017C0133
:100720000E945D036C197D098E099F09683E734024
:1007300081059105A8F321E0821A9108A108B1086A
:1007400088EEC80E83E0D81EE11CF11C81149104D0
:10075000A104B10429F7FF90EF90DF90CF90BF90F4
:10076000AF909F908F9008951F920F920FB60F92A7
:1007700011242F933F934F935F936F937F938F93A6
:100780009F93AF93BF93EF93FF938091BF0190919D
:10079000C001A091C101B091C201892B8A2B8B2B82
:1007A000D1F19091BA01E091BB01F091BC0180813F
:1007B000892780838091BF019091C001A091C101E0
:1007C000B091C201181619061A061B069CF48091F6
:1007D000BF019091C001A091C101B091C2010197E8
:1007E000A109B1098093BF019093C001A093C101F9
:1007F000B093C201FF91EF91BF91AF919F918F9103
:100800007F916F915F914F913F912F910F900FBE0C
:100810000F901F90189580910001E2ECF0E0E491B8
:100820009FEF90930001E13051F030F0E23069F039
:1008300060E00E94C301DECF10926E00F9CF90916C
:100840006F009D7F90936F00F3CF909170009D7F1C
:100850009093700091E09093B0009091B100987FD8
:1008600094609093B1001092B300E2CF1F920F9268
:100870000FB60F9211242F933F934F935F936F9373
:100880007F938F939F93AF93BF93EF93FF938DE1EC
:1008900091E00E940B01FF91EF91BF91AF919F9169
:1008A0008F917F916F915F914F913F912F910F9019
:1008B0000FBE0F901F9018951F920F920FB60F92B8
:1008C00011242F938F939F93EF93FF93E0912D012A
:1008D000F0912E018081E0913301F091340182FD8D
:1008E0001BC09081809136018F5F8F7320913701FB
:1008F000821741F0E0913601F0E0E35EFE4F958F04
:1009000080933601FF91EF919F918F912F910F90DE
:100910000FBE0F901F9018958081F4CF1F920F92F9
:100920000FB60F9211242F933F938F939F93AF9302
:10093000BF938091150190911601A0911701B0917C
:1009400018013091140123E0230F2D3758F501963B
:10095000A11DB11D209314018093150190931601E0
:10096000A0931701B09318018091190190911A0179
:10097000A0911B01B0911C010196A11DB11D809396
:10098000190190931A01A0931B01B0931C01BF9110
:10099000AF919F918F913F912F910F900FBE0F902C
:1009A0001F90189526E8230F0296A11DB11DD2CFE6
:1009B000789484B5826084BD84B5816084BD85B53A
:1009C000826085BD85B5816085BD80916E00816046
:1009D00080936E00109281008091810082608093EC
:1009E00081008091810081608093810080918000EE
:1009F0008160809380008091B10084608093B10019
:100A00008091B00081608093B00080917A00846012
:100A100080937A0080917A00826080937A0080913E
:100A20007A00816080937A0080917A008068809358
:100A30007A001092C100E0912D01F0912E0182E028
:100A40008083E0912901F0912A011082E0912B012D
:100A5000F0912C018FEC808310923501E0913101EF
:100A6000F091320186E08083E0912F01F091300116
:100A7000808180618083E0912F01F091300180813D
:100A800088608083E0912F01F0913001808180683F
:100A90008083E0912F01F091300180818F7D8083F0
:100AA00060E082E00E94F10160E083E00E94F101D9
:100AB00060E084E00E94F10160E085E00E94F101C5
:100AC00060E086E00E94F10160E087E00E94F101B1
:100AD00060E089E00E94F10160E08AE00E94F1019B
:100AE00060E08BE00E94F10160E08CE00E94F10187
:100AF00060E08DE00E94F10144EF51E060E070E0C1
:100B000088EC90E00E9422026AEF70E080E090E0C2
:100B10000E94820344E650E060E070E080E991E0EA
:100B20000E942202CEE7D0E002E910E090EBE92E2D
:100B300090E0F92E20E0C22E20E0D22EFE0184911A
:100B4000F8019491F701B490BB2061F081110E94EB
:100B50009A01EB2DF0E0EE0FFF1FEE58FF4FA5912D
:100B6000B4918C9161E083E00E94C30164E670E07F
:100B700080E090E00E94820360E083E00E94C30175
:100B800061E084E00E94C30164E670E080E090E0F0
:100B90000E94820360E084E00E94C30161E085E07E
:100BA0000E94C30164E670E080E090E00E9482034E
:100BB00060E085E00E94C30161E086E00E94C3011D
:100BC00064E670E080E090E00E94820360E086E0EE
:100BD0000E94C30161E087E00E94C30164E670E007
:100BE00080E090E00E94820360E087E00E94C30101
:100BF00061E089E00E94C30164E670E080E090E07B
:100C00000E94820360E089E00E94C30161E08AE003
:100C10000E94C30164E670E080E090E00E948203DD
:100C200060E08AE00E94C30161E08BE00E94C301A2
:100C300064E670E080E090E00E94820360E08BE078
:100C40000E94C30161E08CE00E94C30164E670E091
:100C500080E090E00E94820360E08CE00E94C3018B
:100C600061E08DE00E94C30164E670E080E090E006
:100C70000E94820360E08DE00E94C30161E08CE08D
:100C80000E94C30164E670E080E090E00E9482036D
:100C900060E08CE00E94C30161E08BE00E94C30130
:100CA00064E670E080E090E00E94820360E08BE008
:100CB0000E94C30161E08AE00E94C30164E670E023
:100CC00080E090E00E94820360E08AE00E94C3011D
:100CD00061E089E00E94C30164E670E080E090E09A
:100CE0000E94820360E089E00E94C30161E087E026
:100CF0000E94C30164E670E080E090E00E948203FD
:100D000060E087E00E94C30161E086E00E94C301C9
:100D100064E670E080E090E00E94820360E086E09C
:100D20000E94C30161E085E00E94C30164E670E0B7
:100D300080E090E00E94820360E085E00E94C301B1
:100D400061E084E00E94C30164E670E080E090E02E
:100D50000E94820360E084E00E94C30164E670E0C8
:100D600080E090E00E948203C114D10409F4E6CE31
:100D70000E94F700882309F4E1CE0E940000DECE35
:100D8000EDE1F1E01382128288EE93E0A0E0B0E0A2
:100D900084839583A683B78385E091E091838083E4
:100DA00085EC90E09587848784EC90E09787868730
:100DB00080EC90E0918B808B81EC90E0938B828B28
:100DC00082EC90E0958B848B86EC90E0978B868B01
:100DD000118E128E138E148E0895A1E21A2EAA1B64
:100DE000BB1BFD010DC0AA1FBB1FEE1FFF1FA217DB
:100DF000B307E407F50720F0A21BB30BE40BF50BD8
:100E0000661F771F881F991F1A9469F76095709560
:100E1000809590959B01AC01BD01CF010895052EF1
:100E200097FB1EF400940E94260757FD07D00E94EE
:100E3000ED0607FC03D04EF40C9426075095409520
:100E4000309521953F4F4F4F5F4F08959095809576
:100E5000709561957F4F8F4F9F4F08950E943F0778
:100E6000A59F900DB49F900DA49F800D911D1124FE
:100E70000895EE0FFF1F0590F491E02D0994A29FB5
:100E8000B001B39FC001A39F700D811D1124911D5E
:100E9000B29F700D811D1124911D0895F894FFCF0C
:100EA000FF000000002D018D00BA007A01EB00C99F
:040EB00000DD000061
:00000001FF
